:100000000C9456000C946B000C946B000C946B00D9
:100010000C946B000C946B000C946B000C946B00B4
:100020000C946B000C946B000C946B000C946B00A4
:100030000C946B000C946B000C946B000C946B0094
:100040000C946B000C946B000C946B000C946B0084
:100050000C946B000C946B000C946B000C946B0074
:100060000C946B000C946B000C946B000C946B0064
:100070000C946B000C946B000C946B000C946B0054
:100080000C946B000C946B000C946B000C946B0044
:100090000C946B000C946B000C946B000C946B0034
:1000A0000C946B000C946B000C946B0011241FBE1D
:1000B000CFEFDAE0DEBFCDBF11E0A0E0B1E0E4EACF
:1000C000F9E002C005900D92A035B107D9F70E9462
:1000D00083000C94D0040C9400008EEF84B990EC53
:1000E00097B980ED8AB91DB810BA15B818B883E26F
:1000F0008BB984E08EB991BB85B7806885BF85B721
:10010000806885BF0895AF92BF92CF92DF92EF9241
:10011000FF920F931F93DF93CF93CDB7DEB7649712
:100120000FB6F894DEBF0FBECDBF0E946D008CE00D
:100130000E94AE010E947E018E010F5F1F4FC80119
:1001400060E071E00E94F101C8010E94940180E02A
:1001500061E00E946F01C80161E171E00E94F1015C
:10016000C8010E949401EE24F02E012F92E2C92EC4
:1001700091E0D92E88ECA82EB12C4D9932C0EA948A
:1001800080E060E00E946F0100D000D000D0EDB7A9
:10019000FEB73196ADB7BEB71196FC921197129685
:1001A0000C93D382C282E48215820E94F8018DB73B
:1001B0009EB706960FB6F8949EBF0FBE8DBF8F2DCB
:1001C000902F0E94940180E061E00E946F018F2DCA
:1001D000902F6FE271E00E94F1018F2D902F0E940D
:1001E0009401499932C0E39480E060E00E946F017D
:1001F00000D000D000D0EDB7FEB73196ADB7BEB796
:100200001196FC92119712960C93D382C282E482CB
:1002100015820E94F8018DB79EB706960FB6F89426
:100220009EBF0FBE8DBF8F2D902F0E94940180E046
:1002300061E00E946F018F2D902F6FE371E00E94AB
:10024000F1018F2D902F0E94940188E893E1F50130
:100250003197F1F70197D9F790CF662311F0289ADB
:1002600001C02898259A269A3E9A3F9A4798469820
:100270002E982D9887FD479A86FD469A85FD2E9AE1
:1002800084FD2D9A769AE6E0F0E03197F1F77698C2
:10029000479846982E982D9883FD479A82FD469A56
:1002A00081FD2E9A80FD2D9A769A86E090E0019746
:1002B000F1F776982D982E98469847980895E0E89B
:1002C000FCE03197F1F760E00E942D010895E0E82D
:1002D000FCE03197F1F761E00E942D01089566235B
:1002E00011F4805801C080540E945F01089580E895
:1002F0009CE00197F1F780E090E0089581E00E9492
:100300005F01089582E00E945F010895E0E8FCE04B
:100310003197F1F78A3021F480EC0E945F01089553
:1003200061E00E942D010895CF93DF93EC0102C09C
:100330000E94860189918823D9F7DF91CF91089592
:10034000CF93DF93EC0102C00E948601FE0121964B
:1003500084918823C9F7DF91CF9108951F93182FB7
:10036000209A6E9A259A269A3E9A3F9A80E098ECB7
:100370000197F1F72E9A2D9A769A26E030E0C9017E
:100380000197F1F7769886E69EE30197F1F7769A62
:10039000C9010197F1F776988CEC90E0FC01319758
:1003A000F1F7769AF9013197F1F77698FC013197D8
:1003B000F1F72D98769AF9013197F1F77698019730
:1003C000F1F788E20E945F0188E00E945F010E94CD
:1003D0007E0186E00E945F01812F0E945F011F91D4
:1003E0000895FB01DC0101900D920020E1F70895D2
:1003F000AEE0B0E0EEEFF1E00C94A7040D891E89A9
:1004000086E08C831A8309838FEF9FE79E838D8319
:100410009E01275E3F4FCE0101966F89788DA9011D
:100420000E941C022F813885020F131FF8011082D1
:100430002E96E4E00C94C304ABE0B0E0E2E2F2E01C
:100440000C9499043C012B015A01FC01178216827D
:10045000838181FD03C06FEF7FEFC6C19AE0892ED3
:100460001E010894211C311CF3012381F20123FD9C
:10047000859123FF81912F01882309F4B2C1853230
:1004800039F423FD859123FF81912F01853229F4D1
:1004900090E0B3010E940F04E7CF982FFF24EE24D1
:1004A0009924FFE1FF15D0F09B3269F09C3228F4CB
:1004B000903259F0933291F40EC09D3249F090334E
:1004C00069F441E024C052E0F52A84E0F82A28C00B
:1004D00098E0F92A25C0E0E1FE2A22C0F7FC29C0F5
:1004E000892F80538A3070F4F6FE05C0989C902CBA
:1004F0001124980E15C0E89CE02C1124E80EF0E2BF
:10050000FF2A0EC09E3229F4F6FC6BC140E4F42AA7
:1005100007C09C3619F450E8F52A02C0983649F411
:10052000F20123FD959123FF91912F01992309F069
:10053000B8CF892F8554833018F08052833038F437
:1005400044E050E0A40EB51E5FE359830FC093361C
:1005500031F0933779F0933509F056C020C0F5019A
:100560008081898342E050E0A40EB51E610101E064
:1005700010E012C0F501C080D180F6FC03C06FEF1F
:100580007FEF02C0692D70E042E050E0A40EB51E7E
:10059000C6010E9404048C015FE7F52214C0F50136
:1005A000C080D180F6FC03C06FEF7FEF02C0692DE1
:1005B00070E042E050E0A40EB51EC6010E94F903AF
:1005C0008C0150E8F52AF3FE07C01AC080E290E0E3
:1005D000B3010E940F04EA948E2D90E008171907CA
:1005E000A8F30EC0F601F7FC8591F7FE81916F012B
:1005F00090E0B3010E940F04E110EA940150104012
:100600000115110579F7EAC0943611F0993669F5AC
:10061000F7FE08C0F501208131814281538184E0D9
:1006200090E00AC0F501808191819C01442737FD4B
:100630004095542F82E090E0A80EB91E9FE6F92263
:1006400057FF09C050954095309521953F4F4F4F2A
:100650005F4FE0E8FE2ACA01B901A1012AE030E0BB
:100660000E943B04D82ED21840C0953729F41F2D84
:100670001F7E2AE030E01DC01F2D197F9F3661F0DC
:10068000903720F4983509F0ACC00FC0903739F09E
:10069000983709F0A6C004C028E030E00AC0106115
:1006A00014FD146020E130E004C014FD166020E168
:1006B00032E017FF08C0F50160817181828193816A
:1006C00044E050E008C0F50180819181BC0180E0E8
:1006D00090E042E050E0A40EB51EA1010E943B0450
:1006E000D82ED2188FE7F82EF122F6FE0BC05EEF5F
:1006F000F522D91438F4F4FE07C0F2FC05C08FEEE1
:10070000F82202C01D2D01C0192DF4FE0DC0FE01FE
:10071000ED0DF11D8081803319F499EEF92208C0A6
:100720001F5FF2FE05C003C08F2D867809F01F5FA2
:100730000F2DF3FC14C0F0FE0FC01E1510F09D2C01
:100740000BC09D2C9E0C911A1E2D06C080E290E0DD
:10075000B3010E940F041F5F1E15C0F304C01E15D5
:1007600010F4E11A01C0EE2404FF0FC080E390E012
:10077000B3010E940F0402FF1DC001FD03C088E702
:1007800090E00EC088E590E00BC0802F867891F055
:1007900001FF02C08BE201C080E2F7FC8DE290E035
:1007A000B3010E940F0406C080E390E0B3010E94F1
:1007B0000F049A94D914C0F3DA94F101ED0DF11DF0
:1007C000808190E0B3010E940F04DD20A9F706C0EC
:1007D00080E290E0B3010E940F04EA94EE20C1F79A
:1007E00043CEF30166817781CB012B96E2E10C9435
:1007F000B504FC010590615070400110D8F7809558
:1008000090958E0F9F1F0895FC01615070400190DC
:100810000110D8F7809590958E0F9F1F08950F9324
:100820001F93CF93DF938C01EB018B8181FF1BC062
:1008300082FF0DC02E813F818C819D812817390751
:1008400064F4E881F9810193F983E88306C0E885BF
:10085000F985802F0995892B31F48E819F8101962E
:100860009F838E8302C00FEF1FEFC801DF91CF91EE
:100870001F910F910895FA01AA27283051F12031D4
:1008800081F1E8946F936E7F6E5F7F4F8F4F9F4F24
:10089000AF4FB1E03ED0B4E03CD0670F781F891F66
:1008A0009A1FA11D680F791F8A1F911DA11D6A0F34
:1008B000711D811D911DA11D20D009F468943F91E7
:1008C0002AE0269F11243019305D3193DEF6CF01E6
:1008D0000895462F4770405D4193B3E00FD0C9F7AC
:1008E000F6CF462F4F70405D4A3318F0495D31FD19
:1008F0004052419302D0A9F7EACFB4E0A69597956C
:10090000879577956795BA95C9F700976105710541
:1009100008959B01AC010A2E06945795479537958B
:100920002795BA95C9F7620F731F841F951FA01DE5
:1009300008952F923F924F925F926F927F928F9283
:100940009F92AF92BF92CF92DF92EF92FF920F935E
:100950001F93CF93DF93CDB7DEB7CA1BDB0B0FB668
:10096000F894DEBF0FBECDBF09942A883988488825
:100970005F846E847D848C849B84AA84B984C884BB
:10098000DF80EE80FD800C811B81AA81B981CE0FB2
:10099000D11D0FB6F894DEBF0FBECDBFED01089597
:0409A000F894FFCFF9
:1009A4004C4344206174697661646F2020202020C8
:1009B400006170657274652061636B2020202020C3
:1009C4002000783D20256420202020202020006164
:1009D40070657274652061636B202B202020006198
:1009E40070657274652062757379202D2020000073
:00000001FF
