:100000000C9456000C9473000C9473000C947300C1
:100010000C9473000C9473000C9473000C94730094
:100020000C9473000C9473000C9473000C94730084
:100030000C9473000C9473000C9473000C94730074
:100040000C9473000C9473000C9473000C94730064
:100050000C9473000C9473000C9473000C94D400F3
:100060000C9473000C9473000C9473000C94730044
:100070000C9473000C9473000C9473000C94730034
:100080000C9473000C9473000C9473000C94730024
:100090000C9473000C9473000C9473000C94730014
:1000A0000C9473000C9473000C94730011241FBE05
:1000B000CFEFDAE0DEBFCDBF11E0A0E0B1E0E4E6D3
:1000C000F5E002C005900D92A230B107D9F711E01A
:1000D000A2E0B1E001C01D92AC30B107E1F70E948F
:1000E00075000C94B0020C940000CF92DF92EF9256
:1000F000FF920F931F93DF93CF93CDB7DEB7A297F5
:100100000FB6F894DEBF0FBECDBF0E94B5008CE0E5
:100110000E9466027E010894E11CF11C8AE2C82E4E
:10012000D12C81E090E00E94110100E010E004C0B9
:10013000805490400F5F1F4F80349105CCF7C7016A
:1001400060E071E00E94A902F70180E090E0C192B6
:10015000D192019608171907D4F780E060E00E9459
:100160002702C7010E944C02DCCF8EEF84B990ECCD
:1001700097B980ED8AB91DB810BA15B818B883E2DE
:100180008BB984E08EB991BB85B7806885BF85B790
:10019000806885BF089589ED86BD14BC84E085BD67
:1001A00081E080936E0008951F920F920FB60F9218
:1001B00011248F939F9389ED86BD809102019091C8
:1001C0000301019690930301809302018091040141
:1001D000909105010196909305018093040180910F
:1001E0000601909107010196909307018093060103
:1001F00080910801909109010196909309018093E3
:10020000080180910A0190910B01019690930B01D6
:1002100080930A019F918F910F900FBE0F901F90B6
:100220001895806480937C0086E080937A0086E94C
:1002300080937A0086EC80937A0083E380937E003B
:1002400080917A0084FFFCCF209178003091790072
:10025000C90108952FEF33E0309387002093860083
:10026000E0E8F0E020812068208323E120938100F2
:1002700010928200909389008093880008952FEF58
:1002800033E03093870020938600E0E8F0E020819F
:100290002062208323E120938100109282009093BA
:1002A0008B0080938A0008952FEF33E0309387000E
:1002B00020938600E0E8F0E020812860208323E19D
:1002C000209381001092820090938D0080938C0087
:1002D0000895873061F1883070F4833001F1843003
:1002E00028F48130C1F0823089F517C08530D9F00B
:1002F0008630D8F416C08B3011F18C3028F4893058
:10030000D1F08A30D0F415C08D30E9F08D30C8F0CE
:100310008E30E1F41AC02F9A08952B9A0895299AE5
:1003200008952A9A08955C9A08955E9A08955F9AAE
:1003300008952C9A08952D9A08952E9A0895469A14
:100340000895479A0895289A0895769A08958730CF
:1003500061F1883070F4833001F1843028F4813009
:10036000C1F0823089F517C08530D9F08630D8F4D5
:1003700016C08B3011F18C3028F48930D1F08A30DE
:10038000D0F415C08D30E9F08D30C8F08E30E1F436
:100390001AC02F9808952B980895299808952A989F
:1003A00008955C9808955E9808955F9808952C9834
:1003B00008952D9808952E98089546980895479881
:1003C00008952898089576980895662311F0289A3C
:1003D00001C02898259A269A3E9A3F9A47984698AF
:1003E0002E982D9887FD479A86FD469A85FD2E9A70
:1003F00084FD2D9A769AE6E0F0E03197F1F7769851
:10040000479846982E982D9883FD479A82FD469AE4
:1004100081FD2E9A80FD2D9A769A86E090E00197D4
:10042000F1F776982D982E98469847980895E0E829
:10043000FCE03197F1F760E00E94E5010895E0E803
:10044000FCE03197F1F761E00E94E5010895662331
:1004500011F4805801C080540E941702089580E86A
:100460009CE00197F1F780E090E0089581E00E9420
:100470001702089582E00E9417020895E0E8FCE068
:100480003197F1F78A3021F480EC0E941702089529
:1004900061E00E94E5010895CF93DF93EC0102C073
:1004A0000E943E0289918823D9F7DF91CF91089568
:1004B000CF93DF93EC0102C00E943E02FE01219621
:1004C00084918823C9F7DF91CF9108951F93182F46
:1004D000209A6E9A259A269A3E9A3F9A80E098EC46
:1004E0000197F1F72E9A2D9A769A26E030E0C9010D
:1004F0000197F1F7769886E69EE30197F1F7769AF1
:10050000C9010197F1F776988CEC90E0FC013197E6
:10051000F1F7769AF9013197F1F77698FC01319766
:10052000F1F72D98769AF9013197F1F776980197BE
:10053000F1F788E20E94170288E00E9417020E94E9
:10054000360286E00E941702812F0E9417021F9137
:100550000895FB01DC0101900D920020E1F7089560
:04056000F894FFCF3D
:02056400200075
:00000001FF
