:100000000C9456000C9473000C9473000C947300C1
:100010000C9473000C9473000C9473000C94730094
:100020000C9473000C9473000C9473000C94730084
:100030000C9473000C9473000C9473000C94730074
:100040000C9473000C9473000C9473000C94730064
:100050000C9473000C9473000C9473000C9459016D
:100060000C9473000C9473000C9473000C94730044
:100070000C9473000C9475000C9473000C94730032
:100080000C9473000C9473000C9473000C94730024
:100090000C9473000C9473000C9473000C94730014
:1000A0000C9473000C9473000C94730011241FBE05
:1000B000CFEFDAE0DEBFCDBF12E0A0E0B1E0ECE4CC
:1000C000F4E102C005900D92AE31B107D9F712E00C
:1000D000AEE1B2E001C01D92A832B107E1F70E9483
:1000E00020010C94240A0C9400001F920F920FB66A
:1000F0000F921124CF92DF92EF92FF920F931F93F2
:100100002F933F934F935F936F937F938F939F931F
:10011000AF93BF93EF93FF9300917900602F70E04E
:1001200080E090E00E942E0720E030E040E151E4C2
:100130000E94040520E030E040EA50E40E94FE0501
:1001400020E030E040E052E40E94D7040E942E03F9
:100150006B017C0182E064E00E94AC02802F6AE0C7
:100160000E94CD0990E010E0612F70E04AE050E07D
:100170000E949C09812F90E00E94D102802F6AE0AA
:100180000E94CD09892F90E0612F70E04AE050E095
:100190000E949C09812F90E00E94D1028FED0E9465
:1001A000A40280E091E00E94D1028C2D6AE00E94BE
:1001B000CD0990E0612F70E04AE050E00E949C0978
:1001C000812F90E00E94D1028C2D6AE00E94CD091F
:1001D000892F90E0612F70E04AE050E00E949C0976
:1001E000812F90E00E94D1028FED0E94A40285E051
:1001F00091E00E94D10288E893E128EC30E0F90117
:100200003197F1F70197D9F780917A008064809354
:100210007A00FF91EF91BF91AF919F918F917F9164
:100220006F915F914F913F912F911F910F91FF908F
:10023000EF90DF90CF900F900FBE0F901F9018950A
:100240008CE00E94EB0280E060E00E94AC0287E05C
:1002500091E00E94D10288E188B98FE880937A000A
:1002600080EE80937C00789480917A008064809303
:100270007A00FFCF8EEF84B990EC97B980ED8AB900
:100280001DB810BA15B818B883E28BB984E08EB9DE
:1002900091BB85B7806885BF85B7806885BF0895A5
:1002A00089ED86BD14BC84E085BD81E080936E003D
:1002B00008951F920F920FB60F9211248F939F9360
:1002C00089ED86BD80911E0290911F020196909348
:1002D0001F0280931E0280912002909121020196BC
:1002E0009093210280932002809122029091230218
:1002F0000196909323028093220280912402909190
:100300002502019690932502809324028091260273
:1003100090912702019690932702809326029F9145
:100320008F910F900FBE0F901F901895806480934F
:100330007C0086E080937A0086E980937A0086ECE0
:1003400080937A0083E380937E0080917A0084FF1B
:10035000FCCF2091780030917900C90108952FEFEA
:1003600033E03093870020938600E0E8F0E02081BE
:100370002068208323E120938100109282009093D3
:1003800089008093880008952FEF33E03093870031
:1003900020938600E0E8F0E020812062208323E1C2
:1003A000209381001092820090938B0080938A00AA
:1003B00008952FEF33E03093870020938600E0E824
:1003C000F0E020812860208323E1209381001092B7
:1003D000820090938D0080938C000895873061F1A6
:1003E000883070F4833001F1843028F48130C1F01A
:1003F000823089F517C08530D9F08630D8F416C020
:100400008B3011F18C3028F48930D1F08A30D0F45F
:1004100015C08D30E9F08D30C8F08E30E1F41AC08F
:100420002F9A08952B9A0895299A08952A9A089543
:100430005C9A08955E9A08955F9A08952C9A08959B
:100440002D9A08952E9A0895469A0895479A0895E8
:10045000289A0895769A0895873061F1883070F46B
:10046000833001F1843028F48130C1F0823089F585
:1004700017C08530D9F08630D8F416C08B3011F112
:100480008C3028F48930D1F08A30D0F415C08D300A
:10049000E9F08D30C8F08E30E1F41AC02F9808953D
:1004A0002B980895299808952A9808955C9808959E
:1004B0005E9808955F9808952C9808952D98089552
:1004C0002E98089546980895479808952898089575
:1004D00076980895662311F0289A01C02898259AE5
:1004E000269A3E9A3F9A479846982E982D9887FDCF
:1004F000479A86FD469A85FD2E9A84FD2D9A769A16
:10050000E6E0F0E03197F1F77698479846982E9814
:100510002D9883FD479A82FD469A81FD2E9A80FD93
:100520002D9A769A86E090E00197F1F776982D98CB
:100530002E98469847980895E0E8FCE03197F1F747
:1005400060E00E946A020895E0E8FCE03197F1F76C
:1005500061E00E946A020895662311F4805801C088
:1005600080540E949C02089580E89CE00197F1F776
:1005700080E090E0089581E00E949C02089582E06E
:100580000E949C020895E0E8FCE03197F1F78A3080
:1005900021F480EC0E949C02089561E00E946A02AE
:1005A0000895CF93DF93EC0102C00E94C3028991AA
:1005B0008823D9F7DF91CF910895CF93DF93EC0192
:1005C00002C00E94C302FE01219684918823C9F7CC
:1005D000DF91CF9108951F93182F209A6E9A259A34
:1005E000269A3E9A3F9A80E098EC0197F1F72E9A6E
:1005F0002D9A769A26E030E0C9010197F1F77698B6
:1006000086E69EE30197F1F7769AC9010197F1F723
:1006100076988CEC90E0FC013197F1F7769AF9012D
:100620003197F1F77698FC013197F1F72D98769A8A
:10063000F9013197F1F776980197F1F788E20E9476
:100640009C0288E00E949C020E94BB0286E00E94FD
:100650009C02812F0E949C021F910895EF92FF92AD
:100660000F931F937B018C0120E030E040E05FE4BA
:100670000E94AA0688238CF0C801B70120E030E070
:1006800040E05FE40E94A6040E94DA069B01AC01F0
:10069000205030404040504806C0C801B7010E9479
:1006A000DA069B01AC01B901CA011F910F91FF90BD
:1006B000EF900895A0E0B0E0E0E6F3E00C94D909F3
:1006C000DC012B01FA019C91923008F439C1EB0155
:1006D0008881823008F433C1943069F4843009F0A1
:1006E0002FC111969C9111978981981709F428C1FF
:1006F000A6E1B1E025C1843009F421C18230A9F41A
:10070000923009F01DC19A01AD0188E0EA0109901B
:10071000AE01E90109929E018150C1F7E201898190
:1007200011969C918923818308C1923009F407C1F5
:1007300012962D903C901397EB018A819B81149621
:10074000AD90BD90CD90DC901797EC80FD800E8130
:100750001F819101281B390BB90137FF04C066279F
:100760007727621B730B603271050CF061C01216A3
:1007700013066CF537014801062E04C09694879441
:10078000779467940A94D2F721E030E040E050E09B
:1007900004C0220F331F441F551F6A95D2F7215002
:1007A0003040404050402E213F214023512321150D
:1007B00031054105510521F021E030E040E050E0F5
:1007C00079018A01E628F728082919293CC0232B3A
:1007D000D1F1260E371E35014601062E04C096942F
:1007E0008794779467940A94D2F721E030E040E050
:1007F00050E004C0220F331F441F551F6A95D2F7E3
:1008000021503040404050402A213B214C215D2165
:10081000211531054105510521F021E030E040E08E
:1008200050E059016A01A628B728C828D9280BC06A
:10083000821593052CF01C01AA24BB24650103C07A
:10084000EE24FF24870111969C91D20111968C9180
:10085000981709F445C0992339F0A80197012A197E
:100860003B094C095D0906C0A60195012E193F09F7
:10087000400B510B57FD08C0118233822282248322
:100880003583468357831DC081E081833382228272
:1008900088279927DC01821B930BA40BB50B84835B
:1008A0009583A683B7830DC0220F331F441F551FA6
:1008B0002483358346835783828193810197938371
:1008C00082832481358146815781DA01C9010197EC
:1008D000A109B1098F5F9F4FAF4FBF4328F30BC0F2
:1008E000918333822282EA0CFB1C0C1D1D1DE482C5
:1008F000F5820683178383E08083248135814681D6
:10090000578157FF1AC0C901AA2797FDA095BA2F92
:1009100081709070A070B070569547953795279567
:10092000822B932BA42BB52B84839583A683B7832B
:1009300082819381019693838283DF0101C0D2017A
:10094000CD01CDB7DEB7E2E10C94F509A0E2B0E04D
:10095000ECEAF4E00C94E50969837A838B839C8349
:100960002D833E834F835887E9E0EE2EF12CEC0E69
:10097000FD1ECE010196B7010E94CB088E010F5ECD
:100980001F4FCE010596B8010E94CB088A8991E0DD
:1009900089278A8BC701B801AE01475E5F4F0E946D
:1009A0005A030E94F607A096E6E00C94010AA0E222
:1009B000B0E0EDEDF4E00C94E50969837A838B8374
:1009C0009C832D833E834F835887F9E0EF2EF12CD3
:1009D000EC0EFD1ECE010196B7010E94CB088E01E0
:1009E0000F5E1F4FCE010596B8010E94CB08C701CC
:1009F000B801AE01475E5F4F0E945A030E94F6079E
:100A0000A096E6E00C94010AA0E2B0E0EAE0F5E08E
:100A10000C94D90969837A838B839C832D833E83CD
:100A20004F835887CE010196BE01675F7F4F0E94BA
:100A3000CB08CE010596BE016F5E7F4F0E94CB08AA
:100A40009985923088F089898230C8F0943019F401
:100A5000823051F404C0843029F4923081F486E16C
:100A600091E0C6C0923049F420E09A858A899813B3
:100A700021E02A87CE010996BBC0823049F420E0EC
:100A80009A858A89981321E02A8BCE014196B0C0BD
:100A90002D843E844F8458886D887E888F88988CFA
:100AA000EE24FF248701AA24BB24650140E050E026
:100AB00060E070E0E0E0F0E0C10181709070892BAF
:100AC000E9F0E60CF71C081D191D9A01AB012A0D6F
:100AD0003B1D4C1D5D1D80E090E0A0E0B0E0E61401
:100AE000F7040805190520F481E090E0A0E0B0E0EB
:100AF000BA01A901480F591F6A1F7B1FAA0CBB1C12
:100B0000CC1CDD1C97FE08C081E090E0A0E0B0E0C6
:100B1000A82AB92ACA2ADB2A3196E032F10549F01F
:100B2000660C771C881C991C56944794379427941C
:100B3000C3CFFA85EA892B893C898B859C85280F50
:100B4000391F2E5F3F4F17C0CA0181709070892BEB
:100B500061F016950795F794E79480E090E0A0E0A7
:100B6000B0E8E82AF92A0A2B1B2B7695679557954A
:100B700047952F5F3F4F77FDE7CF0CC0440F551FC0
:100B8000661F771F17FD4160EE0CFF1C001F111F31
:100B900021503040403090E0590790E0690790E4E0
:100BA000790760F32B8F3C8FDB01CA018F77907040
:100BB000A070B07080349105A105B10561F447FDC6
:100BC0000AC0E114F1040105110529F0405C5F4FF2
:100BD0006F4F7F4F40781A8EFE1711F081E08A8F99
:100BE0004D8F5E8F6F8F78A383E0898FCE014996FA
:100BF0000E94F607A096E2E10C94F509A8E1B0E0A6
:100C0000E4E0F6E00C94E10969837A838B839C83AA
:100C10002D833E834F835887B9E0EB2EF12CEC0EE9
:100C2000FD1ECE010196B7010E94CB088E010F5E1A
:100C30001F4FCE010596B8010E94CB0829852230AE
:100C400008F47EC03989323010F4B8017CC08A853E
:100C50009A8989278A87243011F0223031F42317AA
:100C600009F06EC066E171E06EC0343039F41D8663
:100C70001E861F86188A1C861B8604C0323021F40B
:100C800084E08987B7015FC02B853C858B899C896F
:100C9000281B390B3C872B87ED84FE840F85188930
:100CA000AD88BE88CF88D88CEA14FB040C051D05DE
:100CB00040F4EE0CFF1C001F111F215030403C87F8
:100CC0002B8720E030E040E050E080E090E0A0E0C2
:100CD000B0E460E070E0EA14FB040C051D0540F090
:100CE000282B392B4A2B5B2BEA18FB080C091D0912
:100CF000B695A79597958795EE0CFF1C001F111FC1
:100D00006F5F7F4F6F31710531F7DA01C9018F775E
:100D10009070A070B07080349105A105B10561F4A8
:100D200027FD0AC0E114F1040105110529F0205C3A
:100D30003F4F4F4F5F4F20782D873E874F87588B0F
:100D4000BE01675F7F4FCB010E94F6076896EAE01D
:100D50000C94FD09A8E1B0E0E0EBF6E00C94E509A5
:100D600069837A838B839C832D833E834F8358874B
:100D700089E0E82EF12CEC0EFD1ECE010196B701A4
:100D80000E94CB088E010F5E1F4FCE010596B80161
:100D90000E94CB088985823040F08989823028F012
:100DA000C701B8010E94430901C08FEF6896E6E0D1
:100DB0000C94010AACE0B0E0E0EEF6E00C94E90936
:100DC00069837A838B839C83CE010196BE016B5F1E
:100DD0007F4F0E94CB088D81823061F1823050F1CB
:100DE000843021F48E81882351F12EC02F813885E3
:100DF00037FD20C06E812F3131051CF06623F9F0DC
:100E000023C08EE190E0821B930B29853A854B85A8
:100E10005C8504C056954795379527958A95D2F7F6
:100E20006623B1F050954095309521953F4F4F4F37
:100E30005F4F0EC020E030E040E050E009C02FEFEF
:100E40003FEF4FEF5FE704C020E030E040E050E8C4
:100E5000B901CA012C96E2E00C94050AA8E0B0E0C2
:100E6000E4E3F7E00C94E1097B018C016115710565
:100E70008105910519F482E0898360C083E089834C
:100E80008EE1C82ED12CDC82CB82ED82FE820F83D4
:100E90001887C801B7010E94A707FC013197F7FF27
:100EA0003BC0222733272E1B3F0B57016801022E20
:100EB00004C0D694C794B794A7940A94D2F740E09C
:100EC00050E060E070E081E090E0A0E0B0E004C0BD
:100ED000880F991FAA1FBB1F2A95D2F70197A10956
:100EE000B1098E219F21A023B1230097A105B1054F
:100EF00021F041E050E060E070E04A295B296C2974
:100F00007D294D835E836F8378878EE190E08E1B11
:100F10009F0B9C838B8312C0309781F00E2E04C0F0
:100F2000EE0CFF1C001F111F0A94D2F7ED82FE8207
:100F30000F831887CE1ADF0ADC82CB821A82CE0199
:100F400001960E94F6072896EAE00C94FD09EF92BC
:100F5000FF920F931F937B018C0180E0E81680E0E5
:100F6000F80681E0080780E0180788F48FEFE8169C
:100F7000F1040105110531F028F088E090E0A0E0CF
:100F8000B0E017C080E090E0A0E0B0E012C080E0E8
:100F9000E81680E0F80680E0080781E0180728F0EE
:100FA00088E190E0A0E0B0E004C080E190E0A0E043
:100FB000B0E020E230E040E050E0281B390B4A0B63
:100FC0005B0B04C016950795F794E7948A95D2F7C2
:100FD000F701E25EFE4F8081281B3109410951096A
:100FE000C9011F910F91FF90EF900895DF92EF924A
:100FF000FF920F931F93FC01E480F5800681178117
:10100000D1808081823048F480E090E0A0E1B0E0BF
:10101000E82AF92A0A2B1B2BA5C0843009F49FC0AB
:10102000823021F4EE24FF24870105C0E114F1048D
:101030000105110519F4E0E0F0E096C062817381CA
:101040009FEF623879070CF05BC022E83FEF261B68
:10105000370B2A3131052CF020E030E040E050E041
:101060002AC0B801A701022E04C07695679557954E
:1010700047950A94D2F781E090E0A0E0B0E004C088
:10108000880F991FAA1FBB1F2A95D2F70197A109A4
:10109000B1098E219F21A023B1230097A105B1059D
:1010A00021F081E090E0A0E0B0E09A01AB01282BB4
:1010B000392B4A2B5B2BDA01C9018F779070A07016
:1010C000B07080349105A105B10539F427FF09C03E
:1010D000205C3F4F4F4F5F4F04C0215C3F4F4F4F4D
:1010E0005F4FE0E0F0E02030A0E03A07A0E04A07E0
:1010F000A0E45A0710F0E1E0F0E079018A0127C08E
:101100006038710564F5FB01E158FF4FD801C70154
:101110008F779070A070B07080349105A105B105F3
:1011200039F4E7FE0DC080E490E0A0E0B0E004C038
:101130008FE390E0A0E0B0E0E80EF91E0A1F1B1F4D
:1011400017FF05C016950795F794E794319687E049
:1011500016950795F794E7948A95D1F705C0EE2484
:10116000FF248701EFEFF0E06E2F67956627679504
:10117000902F9F77D794DD24D7948E2F8695492F73
:10118000462B582F5D29B701CA011F910F91FF907F
:10119000EF90DF900895FC01DB01408151812281B5
:1011A000622F6F7770E0221F2227221F9381892FE1
:1011B000880F822B282F30E0991F9927991F1196AD
:1011C0009C93119721153105A9F54115510561052C
:1011D000710511F482E037C082E89FEF13969C936B
:1011E0008E9312979A01AB0167E0220F331F441FC1
:1011F000551F6A95D1F783E08C930DC0220F331FE2
:10120000441F551F12968D919C9113970197139629
:101210009C938E931297203080E0380780E0480737
:1012200080E4580758F314962D933D934D935C93A7
:10123000179708952F3F310579F441155105610540
:10124000710519F484E08C93089564FF03C081E074
:101250008C9312C01C9210C02F57304013963C93B1
:101260002E93129783E08C9387E0440F551F661FDF
:10127000771F8A95D1F7706414964D935D936D93A3
:101280007C93179708951F93DC01FB019C9192308A
:1012900008F447C08081823008F443C0943051F490
:1012A00011961C91843099F58181682F70E0611B43
:1012B00071093FC0843021F0923031F48230B9F1AD
:1012C0008181882389F12DC011961C91119782305C
:1012D000F1F081811817D9F412962D913C91139752
:1012E000828193818217930794F028173907BCF005
:1012F00014968D919D910D90BC91A02D24813581E6
:1013000046815781281739074A075B0718F41123CC
:1013100041F00AC082179307A407B50740F41123D0
:1013200019F061E070E005C06FEF7FEF02C060E090
:1013300070E0CB011F910895FB019F01E8944230BA
:10134000C4F04532B4F44A3029F497FB1EF490956A
:1013500081959F4F642F77270E94100A805D8A3302
:101360000CF0895D8193CB010097A1F716F45DE243
:1013700051931082C9010C94BD09DC01FC01672F57
:1013800071917723E1F7329704C07C916D9370835C
:101390006291AE17BF07C8F30895991B79E004C0A6
:1013A000991F961708F0961B881F7A95C9F78095A4
:1013B00008952F923F924F925F926F927F928F92F9
:1013C0009F92AF92BF92CF92DF92EF92FF920F93D4
:1013D0001F93CF93DF93CDB7DEB7CA1BDB0B0FB6DE
:1013E000F894DEBF0FBECDBF09942A88398848889B
:1013F0005F846E847D848C849B84AA84B984C88431
:10140000DF80EE80FD800C811B81AA81B981CE0F27
:10141000D11D0FB6F894DEBF0FBECDBFED0108950C
:10142000AA1BBB1B51E107C0AA1FBB1FA617B7070A
:1014300010F0A61BB70B881F991F5A95A9F7809526
:0C1440009095BC01CD010895F894FFCFF9
:10144C004320202000460054656D706572617475F0
:10145C0072652069730000000000000000000001AC
:10146C000202030303030404040404040404050536
:10147C00050505050505050505050505050506060E
:10148C0006060606060606060606060606060606F0
:10149C0006060606060606060606060606060707DE
:1014AC0007070707070707070707070707070707C0
:1014BC0007070707070707070707070707070707B0
:1014CC0007070707070707070707070707070707A0
:1014DC00070707070707070707070707070708088E
:1014EC000808080808080808080808080808080870
:1014FC000808080808080808080808080808080860
:10150C00080808080808080808080808080808084F
:10151C00080808080808080808080808080808083F
:10152C00080808080808080808080808080808082F
:10153C00080808080808080808080808080808081F
:10154C00080808080808080808080808080808080F
:0E155C00080808080808080808080808080811
:00000001FF
