:100000000C9456000C9473000C9473000C947300C1
:100010000C9473000C9473000C9473000C94730094
:100020000C9473000C9473000C9473000C94730084
:100030000C9473000C9473000C9473000C94730074
:100040000C9473000C9473000C9473000C94730064
:100050000C9473000C9473000C9473000C94F700D0
:100060000C9473000C9473000C9473000C94730044
:100070000C9473000C9473000C9473000C94730034
:100080000C9473000C9473000C9473000C94730024
:100090000C9473000C9473000C9473000C94730014
:1000A0000C9473000C9473000C94730011241FBE05
:1000B000CFEFDAE0DEBFCDBF11E0A0E0B1E0ECE4CD
:1000C000FBE002C005900D92A630B107D9F711E010
:1000D000A6E0B1E001C01D92A031B107E1F70E9496
:1000E00075000C94A4050C940000CF92DF92EF925F
:1000F000FF920F931F93DF93CF93CDB7DEB7A297F5
:100100000FB6F894DEBF0FBECDBF0E94D8000E948C
:10011000EE00789410920701109206018CE00E9484
:10012000890200E010E07E010894E11CF11C80E0EF
:10013000C82E81E0D82E8091060190910701805051
:100140009440C8F31092070110920601012B61F54B
:100150005C9A01E010E08DB79EB708970FB6F8944F
:100160009EBF0FBE8DBFEDB7FEB73196ADB7BEB720
:100170001296FC92EE921197D382C282158214825B
:10018000178216820E94CC028DB79EB708960FB6D2
:10019000F8949EBF0FBE8DBF80E060E00E944A02CF
:1001A000C7010E946F02C7CF5C9800E010E0D3CF78
:1001B0008EEF84B990EC97B980ED8AB91DB810BA6A
:1001C00015B818B883E28BB984E08EB991BB85B7B6
:1001D000806885BF85B7806885BF089589ED86BD35
:1001E00014BC84E085BD81E080936E0008951F9269
:1001F0000F920FB60F9211248F939F9389ED86BDB6
:1002000080910601909107010196909307018093D8
:1002100006018091080190910901019690930901CE
:100220008093080180910A0190910B0101969093AF
:100230000B0180930A0180910C0190910D010196B0
:1002400090930D0180930C0180910E0190910F010C
:10025000019690930F0180930E019F918F910F90C3
:100260000FBE0F901F901895806480937C0086E0ED
:1002700080937A0086E980937A0086EC80937A00F6
:1002800083E380937E0080917A0084FFFCCF2091ED
:10029000780030917900C90108952FEF33E0309351
:1002A000870020938600E0E8F0E02081206820832A
:1002B00023E1209381001092820090938900809323
:1002C000880008952FEF33E0309387002093860055
:1002D000E0E8F0E020812062208323E12093810088
:1002E0001092820090938B0080938A0008952FEFE4
:1002F00033E03093870020938600E0E8F0E020812F
:100300002860208323E12093810010928200909343
:100310008D0080938C000895873061F1883070F4EF
:10032000833001F1843028F48130C1F0823089F5C6
:1003300017C08530D9F08630D8F416C08B3011F153
:100340008C3028F48930D1F08A30D0F415C08D304B
:10035000E9F08D30C8F08E30E1F41AC02F9A08957C
:100360002B9A0895299A08952A9A08955C9A0895D7
:100370005E9A08955F9A08952C9A08952D9A08958B
:100380002E9A0895469A0895479A0895289A0895AE
:10039000769A0895873061F1883070F4833001F1E6
:1003A000843028F48130C1F0823089F517C085305F
:1003B000D9F08630D8F416C08B3011F18C3028F487
:1003C0008930D1F08A30D0F415C08D30E9F08D300D
:1003D000C8F08E30E1F41AC02F9808952B98089534
:1003E000299808952A9808955C9808955E9808952C
:1003F0005F9808952C9808952D9808952E98089543
:1004000046980895479808952898089576980895ED
:10041000662311F0289A01C02898259A269A3E9AB8
:100420003F9A479846982E982D9887FD479A86FDC3
:10043000469A85FD2E9A84FD2D9A769AE6E0F0E0A4
:100440003197F1F77698479846982E982D9883FD26
:10045000479A82FD469A81FD2E9A80FD2D9A769AC2
:1004600086E090E00197F1F776982D982E984698BF
:1004700047980895E0E8FCE03197F1F760E00E94CA
:1004800008020895E0E8FCE03197F1F761E00E948E
:1004900008020895662311F4805801C080540E9418
:1004A0003A02089580E89CE00197F1F780E090E03F
:1004B000089581E00E943A02089582E00E943A0283
:1004C0000895E0E8FCE03197F1F78A3021F480EC00
:1004D0000E943A02089561E00E9408020895CF93B5
:1004E000DF93EC0102C00E94610289918823D9F751
:1004F000DF91CF910895CF93DF93EC0102C00E946A
:100500006102FE01219684918823C9F7DF91CF9182
:1005100008951F93182F209A6E9A259A269A3E9A2C
:100520003F9A80E098EC0197F1F72E9A2D9A769AEF
:1005300026E030E0C9010197F1F7769886E69EE360
:100540000197F1F7769AC9010197F1F776988CEC4B
:1005500090E0FC013197F1F7769AF9013197F1F7C4
:100560007698FC013197F1F72D98769AF901319739
:10057000F1F776980197F1F788E20E943A0288E055
:100580000E943A020E94590286E00E943A02812F9C
:100590000E943A021F910895AEE0B0E0E2EDF2E071
:1005A0000C947B050D891E8986E08C831A83098350
:1005B0008FEF9FE79E838D839E01275E3F4FCE0185
:1005C00001966F89788DA9010E94F0022F813885EC
:1005D000020F131FF80110822E96E4E00C94970589
:1005E000ABE0B0E0E6EFF2E00C946D053C012B01CE
:1005F0005A01FC0117821682838181FD03C06FEFCF
:100600007FEFC6C19AE0892E1E010894211C311C7F
:10061000F3012381F20123FD859123FF81912F01B5
:10062000882309F4B2C1853239F423FD859123FF73
:1006300081912F01853229F490E0B3010E94E304F7
:10064000E7CF982FFF24EE249924FFE1FF15D0F087
:100650009B3269F09C3228F4903259F0933291F435
:100660000EC09D3249F0903369F441E024C052E05D
:10067000F52A84E0F82A28C098E0F92A25C0E0E1AC
:10068000FE2A22C0F7FC29C0892F80538A3070F4DB
:10069000F6FE05C0989C902C1124980E15C0E89C7D
:1006A000E02C1124E80EF0E2FF2A0EC09E3229F45D
:1006B000F6FC6BC140E4F42A07C09C3619F450E8FC
:1006C000F52A02C0983649F4F20123FD959123FFE3
:1006D00091912F01992309F0B8CF892F8554833048
:1006E00018F08052833038F444E050E0A40EB51E78
:1006F0005FE359830FC0933631F0933779F0933528
:1007000009F056C020C0F5018081898342E050E0A5
:10071000A40EB51E610101E010E012C0F501C08019
:10072000D180F6FC03C06FEF7FEF02C0692D70E04F
:1007300042E050E0A40EB51EC6010E94D8048C0110
:100740005FE7F52214C0F501C080D180F6FC03C03C
:100750006FEF7FEF02C0692D70E042E050E0A40E21
:10076000B51EC6010E94CD048C0150E8F52AF3FEA7
:1007700007C01AC080E290E0B3010E94E304EA944B
:100780008E2D90E008171907A8F30EC0F601F7FCAC
:100790008591F7FE81916F0190E0B3010E94E3041F
:1007A000E110EA94015010400115110579F7EAC0F3
:1007B000943611F0993669F5F7FE08C0F5012081ED
:1007C00031814281538184E090E00AC0F50180814B
:1007D00091819C01442737FD4095542F82E090E0A1
:1007E000A80EB91E9FE6F92257FF09C05095409503
:1007F000309521953F4F4F4F5F4FE0E8FE2ACA01E9
:10080000B901A1012AE030E00E940F05D82ED218CC
:1008100040C0953729F41F2D1F7E2AE030E01DC00F
:100820001F2D197F9F3661F0903720F4983509F01D
:10083000ACC00FC0903739F0983709F0A6C004C09B
:1008400028E030E00AC0106114FD146020E130E0BF
:1008500004C014FD166020E132E017FF08C0F50166
:10086000608171818281938144E050E008C0F5018C
:1008700080819181BC0180E090E042E050E0A40ED4
:10088000B51EA1010E940F05D82ED2188FE7F82EB1
:10089000F122F6FE0BC05EEFF522D91438F4F4FE17
:1008A00007C0F2FC05C08FEEF82202C01D2D01C06A
:1008B000192DF4FE0DC0FE01ED0DF11D8081803378
:1008C00019F499EEF92208C01F5FF2FE05C003C0BB
:1008D0008F2D867809F01F5F0F2DF3FC14C0F0FEFA
:1008E0000FC01E1510F09D2C0BC09D2C9E0C911A54
:1008F0001E2D06C080E290E0B3010E94E3041F5F5A
:100900001E15C0F304C01E1510F4E11A01C0EE2438
:1009100004FF0FC080E390E0B3010E94E30402FFF4
:100920001DC001FD03C088E790E00EC088E590E09F
:100930000BC0802F867891F001FF02C08BE201C0CE
:1009400080E2F7FC8DE290E0B3010E94E30406C070
:1009500080E390E0B3010E94E3049A94D914C0F3B9
:10096000DA94F101ED0DF11D808190E0B3010E9458
:10097000E304DD20A9F706C080E290E0B3010E9405
:10098000E304EA94EE20C1F743CEF3016681778158
:10099000CB012B96E2E10C948905FC010590615096
:1009A00070400110D8F7809590958E0F9F1F089585
:1009B000FC016150704001900110D8F7809590952E
:1009C0008E0F9F1F08950F931F93CF93DF938C017A
:1009D000EB018B8181FF1BC082FF0DC02E813F8107
:1009E0008C819D812817390764F4E881F98101938E
:1009F000F983E88306C0E885F985802F0995892B5E
:100A000031F48E819F8101969F838E8302C00FEF08
:100A10001FEFC801DF91CF911F910F910895FA0147
:100A2000AA27283051F1203181F1E8946F936E7F2D
:100A30006E5F7F4F8F4F9F4FAF4FB1E03ED0B4E01E
:100A40003CD0670F781F891F9A1FA11D680F791F5F
:100A50008A1F911DA11D6A0F711D811D911DA11D70
:100A600020D009F468943F912AE0269F1124301980
:100A7000305D3193DEF6CF010895462F4770405D1B
:100A80004193B3E00FD0C9F7F6CF462F4F70405DCA
:100A90004A3318F0495D31FD4052419302D0A9F725
:100AA000EACFB4E0A6959795879577956795BA951F
:100AB000C9F700976105710508959B01AC010A2EE5
:100AC00006945795479537952795BA95C9F7620FBC
:100AD000731F841F951FA01D08952F923F924F9260
:100AE0005F926F927F928F929F92AF92BF92CF92BE
:100AF000DF92EF92FF920F931F93CF93DF93CDB7C7
:100B0000DEB7CA1BDB0B0FB6F894DEBF0FBECDBF3E
:100B100009942A88398848885F846E847D848C840F
:100B20009B84AA84B984C884DF80EE80FD800C8118
:100B30001B81AA81B981CE0FD11D0FB6F894DEBFFB
:0C0B40000FBECDBFED010895F894FFCF6B
:060B4C0025693A2569004D
:00000001FF
