:100000000C9456000C9473000C9473000C947300C1
:100010000C9473000C9473000C9473000C94730094
:100020000C9473000C9473000C9473000C94730084
:100030000C9473000C9473000C9473000C94730074
:100040000C9473000C9473000C9473000C94730064
:100050000C9473000C9473000C9473000C940301C3
:100060000C9473000C9473000C9473000C94730044
:100070000C9473000C9473000C9473000C94730034
:100080000C9473000C9473000C9473000C94730024
:100090000C9473000C9473000C9473000C94730014
:1000A0000C9473000C9473000C94730011241FBE05
:1000B000CFEFDAE0DEBFCDBF11E0A0E0B1E0E2ECCF
:1000C000F5E002C005900D92A031B107D9F711E01B
:1000D000A0E1B1E001C01D92AA31B107E1F70E9491
:1000E0008E000C94DF020C94000083E390E0909368
:1000F000CD008093CC0088E18093C9000895982FAB
:100100008091C80085FFFCCF9093CE000895809128
:10011000C80087FFFCCF8091CE000895FF920F9317
:100120001F93DF93CF93CDB7DEB764970FB6F894E4
:10013000DEBF0FBECDBF0E94E40083E390E090934A
:10014000CD008093CC0088E18093C9008CE00E94B0
:1001500095020E9465028E010F5F1F4FC80160E08B
:1001600071E00E94D802C8010E947B0281E4F82E4F
:1001700012E44D9908C08091C80085FFFCCFF09231
:10018000CE004D9BFECF499906C08091C80085FFE7
:10019000FCCF1093CE008091C80087FFEACF8091FA
:1001A000C80087FFFCCF0091CE0080E061E00E9494
:1001B0005602802F0E946D02013411F42F9AD9CF7C
:1001C0000234B9F62F98D5CF8EEF84B990EC97B959
:1001D00080ED8AB91DB810BA15B818B883E28BB98A
:1001E00084E08EB991BB85B7806885BF85B780688C
:1001F00085BF089589ED86BD14BC84E085BD81E08E
:1002000080936E0008951F920F920FB60F921124E3
:100210008F939F9389ED86BD80911001909111017C
:100220000196909311018093100180911201909199
:100230001301019690931301809312018091140190
:10024000909115010196909315018093140180916E
:100250001601909117010196909317018093160152
:100260008091180190911901019690931901809342
:1002700018019F918F910F900FBE0F901F901895AE
:10028000806480937C0086E080937A0086E9809386
:100290007A0086EC80937A0083E380937E008091DD
:1002A0007A0084FFFCCF2091780030917900C90159
:1002B00008952FEF33E03093870020938600E0E825
:1002C000F0E020812068208323E1209381001092B8
:1002D0008200909389008093880008952FEF33E087
:1002E0003093870020938600E0E8F0E020812062D0
:1002F000208323E1209381001092820090938B0051
:1003000080938A0008952FEF33E030938700209385
:100310008600E0E8F0E020812860208323E120933C
:1003200081001092820090938D0080938C0008953C
:10033000873061F1883070F4833001F1843028F423
:100340008130C1F0823089F517C08530D9F0863010
:10035000D8F416C08B3011F18C3028F48930D1F0EC
:100360008A30D0F415C08D30E9F08D30C8F08E3071
:10037000E1F41AC02F9A08952B9A0895299A0895A6
:100380002A9A08955C9A08955E9A08955F9A08954E
:100390002C9A08952D9A08952E9A0895469A0895B4
:1003A000479A0895289A0895769A0895873061F1BA
:1003B000883070F4833001F1843028F48130C1F04A
:1003C000823089F517C08530D9F08630D8F416C050
:1003D0008B3011F18C3028F48930D1F08A30D0F490
:1003E00015C08D30E9F08D30C8F08E30E1F41AC0C0
:1003F0002F9808952B980895299808952A9808957C
:100400005C9808955E9808955F9808952C980895D3
:100410002D9808952E980895469808954798089520
:100420002898089576980895662311F0289A01C0B7
:100430002898259A269A3E9A3F9A479846982E9849
:100440002D9887FD479A86FD469A85FD2E9A84FD54
:100450002D9A769AE6E0F0E03197F1F77698479892
:1004600046982E982D9883FD479A82FD469A81FDE5
:100470002E9A80FD2D9A769A86E090E00197F1F70A
:1004800076982D982E98469847980895E0E8FCE0D5
:100490003197F1F760E00E9414020895E0E8FCE073
:1004A0003197F1F761E00E9414020895662311F478
:1004B000805801C080540E944602089580E89CE064
:1004C0000197F1F780E090E0089581E00E944602F4
:1004D000089582E00E9446020895E0E8FCE031972A
:1004E000F1F78A3021F480EC0E944602089561E021
:1004F0000E9414020895CF93DF93EC0102C00E9482
:100500006D0289918823D9F7DF91CF910895CF9318
:10051000DF93EC0102C00E946D02FE0121968491DE
:100520008823C9F7DF91CF9108951F93182F209A40
:100530006E9A259A269A3E9A3F9A80E098EC019707
:10054000F1F72E9A2D9A769A26E030E0C9010197AC
:10055000F1F7769886E69EE30197F1F7769AC9015E
:100560000197F1F776988CEC90E0FC013197F1F768
:10057000769AF9013197F1F77698FC013197F1F706
:100580002D98769AF9013197F1F776980197F1F75E
:1005900088E20E94460288E00E9446020E946502AC
:1005A00086E00E944602812F0E9446021F91089514
:1005B000FB01DC0101900D920020E1F70895F89411
:0205C000FFCF6B
:1005C2004170657274652041434B2F425553590067
:00000001FF
