:100000000C9456000C9473000C9473000C947300C1
:100010000C9473000C9473000C9473000C94730094
:100020000C9473000C9473000C9473000C94730084
:100030000C9473000C9473000C9473000C94730074
:100040000C9473000C9473000C9473000C94730064
:100050000C9473000C9473000C9473000C941C01AA
:100060000C9473000C9473000C9473000C94730044
:100070000C9473000C9473000C9473000C94730034
:100080000C9473000C9473000C9473000C94730024
:100090000C9473000C9473000C9473000C94730014
:1000A0000C9473000C9473000C94730011241FBE05
:1000B000CFEFDAE0DEBFCDBF11E0A0E0B1E0E4EACF
:1000C000FBE002C005900D92AC31B107D9F711E009
:1000D000ACE1B1E001C01D92A632B107E1F70E9488
:1000E00075000C94D0050C940000BF92CF92DF9263
:1000F000EF92FF920F931F93DF93CF93CDB7DEB7AD
:1001000064970FB6F894DEBF0FBECDBF0E94FD000E
:100110000E9413018CE00E94AE020E947E028E01BA
:100120000F5F1F4FC80160E071E00E94F102C8013B
:100130000E949402789410921D0110921C0110925A
:100140001F0110921E01109221011092200100E067
:100150007E010894E11CF11C91E1C92E91E0D92E99
:1001600080E1B82E10E480911C0190911D01893C22
:10017000910530F110921D0110921C010F5F80E07B
:1001800061E00E946F0200D000D000D0EDB7FEB752
:100190003196ADB7BEB71296FC92EE921197D3820C
:1001A000C282048315820E94F8028DB79EB706961C
:1001B0000FB6F8949EBF0FBE8DBFC7010E94940278
:1001C00080911E0190911F01CD9738F010921F0170
:1001D00010921E018BB18B258BB9809120019091DB
:1001E00021018739910508F4BECF109221011092A8
:1001F00020018BB181278BB9B6CF8EEF84B990ECFB
:1002000097B980ED8AB91DB810BA15B818B883E24D
:100210008BB984E08EB991BB85B7806885BF85B7FF
:10022000806885BF089582E686BD14BC84E085BDE4
:1002300081E080936E0008951F920F920FB60F9287
:1002400011248F939F9382E686BD80911C0190912B
:100250001D01019690931D0180931C0180911E0148
:1002600090911F01019690931F0180931E01809130
:10027000200190912101019690932101809320010A
:100280008091220190912301019690932301809304
:1002900022018091240190912501019690932501DE
:1002A000809324019F918F910F900FBE0F901F900C
:1002B0001895806480937C0086E080937A0086E9BC
:1002C00080937A0086EC80937A0083E380937E00AB
:1002D00080917A0084FFFCCF2091780030917900E2
:1002E000C90108952FEF33E03093870020938600F3
:1002F000E0E8F0E020812068208323E12093810062
:1003000010928200909389008093880008952FEFC7
:1003100033E03093870020938600E0E8F0E020810E
:100320002062208323E12093810010928200909329
:100330008B0080938A0008952FEF33E0309387007D
:1003400020938600E0E8F0E020812860208323E10C
:10035000209381001092820090938D0080938C00F6
:100360000895873061F1883070F4833001F1843072
:1003700028F48130C1F0823089F517C08530D9F07A
:100380008630D8F416C08B3011F18C3028F48930C7
:10039000D1F08A30D0F415C08D30E9F08D30C8F03E
:1003A0008E30E1F41AC02F9A08952B9A0895299A55
:1003B00008952A9A08955C9A08955E9A08955F9A1E
:1003C00008952C9A08952D9A08952E9A0895469A84
:1003D0000895479A0895289A0895769A089587303F
:1003E00061F1883070F4833001F1843028F4813079
:1003F000C1F0823089F517C08530D9F08630D8F445
:1004000016C08B3011F18C3028F48930D1F08A304D
:10041000D0F415C08D30E9F08D30C8F08E30E1F4A5
:100420001AC02F9808952B980895299808952A980E
:1004300008955C9808955E9808955F9808952C98A3
:1004400008952D9808952E980895469808954798F0
:1004500008952898089576980895662311F0289AAB
:1004600001C02898259A269A3E9A3F9A479846981E
:100470002E982D9887FD479A86FD469A85FD2E9ADF
:1004800084FD2D9A769AE6E0F0E03197F1F77698C0
:10049000479846982E982D9883FD479A82FD469A54
:1004A00081FD2E9A80FD2D9A769A86E090E0019744
:1004B000F1F776982D982E98469847980895E0E899
:1004C000FCE03197F1F760E00E942D020895E0E82A
:1004D000FCE03197F1F761E00E942D020895662358
:1004E00011F4805801C080540E945F02089580E892
:1004F0009CE00197F1F780E090E0089581E00E9490
:100500005F02089582E00E945F020895E0E8FCE047
:100510003197F1F78A3021F480EC0E945F02089550
:1005200061E00E942D020895CF93DF93EC0102C099
:100530000E94860289918823D9F7DF91CF9108958F
:10054000CF93DF93EC0102C00E948602FE01219648
:1005500084918823C9F7DF91CF9108951F93182FB5
:10056000209A6E9A259A269A3E9A3F9A80E098ECB5
:100570000197F1F72E9A2D9A769A26E030E0C9017C
:100580000197F1F7769886E69EE30197F1F7769A60
:10059000C9010197F1F776988CEC90E0FC01319756
:1005A000F1F7769AF9013197F1F77698FC013197D6
:1005B000F1F72D98769AF9013197F1F7769801972E
:1005C000F1F788E20E945F0288E00E945F020E94C9
:1005D0007E0286E00E945F02812F0E945F021F91CF
:1005E0000895FB01DC0101900D920020E1F70895D0
:1005F000AEE0B0E0EEEFF2E00C94A7050D891E89A5
:1006000086E08C831A8309838FEF9FE79E838D8317
:100610009E01275E3F4FCE0101966F89788DA9011B
:100620000E941C032F813885020F131FF8011082CE
:100630002E96E4E00C94C305ABE0B0E0E2E2F3E018
:100640000C9499053C012B015A01FC01178216827A
:10065000838181FD03C06FEF7FEFC6C19AE0892ED1
:100660001E010894211C311CF3012381F20123FD9A
:10067000859123FF81912F01882309F4B2C185322E
:1006800039F423FD859123FF81912F01853229F4CF
:1006900090E0B3010E940F05E7CF982FFF24EE24CE
:1006A0009924FFE1FF15D0F09B3269F09C3228F4C9
:1006B000903259F0933291F40EC09D3249F090334C
:1006C00069F441E024C052E0F52A84E0F82A28C009
:1006D00098E0F92A25C0E0E1FE2A22C0F7FC29C0F3
:1006E000892F80538A3070F4F6FE05C0989C902CB8
:1006F0001124980E15C0E89CE02C1124E80EF0E2BD
:10070000FF2A0EC09E3229F4F6FC6BC140E4F42AA5
:1007100007C09C3619F450E8F52A02C0983649F40F
:10072000F20123FD959123FF91912F01992309F067
:10073000B8CF892F8554833018F08052833038F435
:1007400044E050E0A40EB51E5FE359830FC093361A
:1007500031F0933779F0933509F056C020C0F50198
:100760008081898342E050E0A40EB51E610101E062
:1007700010E012C0F501C080D180F6FC03C06FEF1D
:100780007FEF02C0692D70E042E050E0A40EB51E7C
:10079000C6010E9404058C015FE7F52214C0F50133
:1007A000C080D180F6FC03C06FEF7FEF02C0692DDF
:1007B00070E042E050E0A40EB51EC6010E94F904AC
:1007C0008C0150E8F52AF3FE07C01AC080E290E0E1
:1007D000B3010E940F05EA948E2D90E008171907C7
:1007E000A8F30EC0F601F7FC8591F7FE81916F0129
:1007F00090E0B3010E940F05E110EA94015010400F
:100800000115110579F7EAC0943611F0993669F5AA
:10081000F7FE08C0F501208131814281538184E0D7
:1008200090E00AC0F501808191819C01442737FD49
:100830004095542F82E090E0A80EB91E9FE6F92261
:1008400057FF09C050954095309521953F4F4F4F28
:100850005F4FE0E8FE2ACA01B901A1012AE030E0B9
:100860000E943B05D82ED21840C0953729F41F2D81
:100870001F7E2AE030E01DC01F2D197F9F3661F0DA
:10088000903720F4983509F0ACC00FC0903739F09C
:10089000983709F0A6C004C028E030E00AC0106113
:1008A00014FD146020E130E004C014FD166020E166
:1008B00032E017FF08C0F501608171818281938168
:1008C00044E050E008C0F50180819181BC0180E0E6
:1008D00090E042E050E0A40EB51EA1010E943B054D
:1008E000D82ED2188FE7F82EF122F6FE0BC05EEF5D
:1008F000F522D91438F4F4FE07C0F2FC05C08FEEDF
:10090000F82202C01D2D01C0192DF4FE0DC0FE01FC
:10091000ED0DF11D8081803319F499EEF92208C0A4
:100920001F5FF2FE05C003C08F2D867809F01F5FA0
:100930000F2DF3FC14C0F0FE0FC01E1510F09D2CFF
:100940000BC09D2C9E0C911A1E2D06C080E290E0DB
:10095000B3010E940F051F5F1E15C0F304C01E15D2
:1009600010F4E11A01C0EE2404FF0FC080E390E010
:10097000B3010E940F0502FF1DC001FD03C088E7FF
:1009800090E00EC088E590E00BC0802F867891F053
:1009900001FF02C08BE201C080E2F7FC8DE290E033
:1009A000B3010E940F0506C080E390E0B3010E94EE
:1009B0000F059A94D914C0F3DA94F101ED0DF11DED
:1009C000808190E0B3010E940F05DD20A9F706C0E9
:1009D00080E290E0B3010E940F05EA94EE20C1F797
:1009E00043CEF30166817781CB012B96E2E10C9433
:1009F000B505FC010590615070400110D8F7809555
:100A000090958E0F9F1F0895FC01615070400190DA
:100A10000110D8F7809590958E0F9F1F08950F9322
:100A20001F93CF93DF938C01EB018B8181FF1BC060
:100A300082FF0DC02E813F818C819D81281739074F
:100A400064F4E881F9810193F983E88306C0E885BD
:100A5000F985802F0995892B31F48E819F8101962C
:100A60009F838E8302C00FEF1FEFC801DF91CF91EC
:100A70001F910F910895FA01AA27283051F12031D2
:100A800081F1E8946F936E7F6E5F7F4F8F4F9F4F22
:100A9000AF4FB1E03ED0B4E03CD0670F781F891F64
:100AA0009A1FA11D680F791F8A1F911DA11D6A0F32
:100AB000711D811D911DA11D20D009F468943F91E5
:100AC0002AE0269F11243019305D3193DEF6CF01E4
:100AD0000895462F4770405D4193B3E00FD0C9F7AA
:100AE000F6CF462F4F70405D4A3318F0495D31FD17
:100AF0004052419302D0A9F7EACFB4E0A69597956A
:100B0000879577956795BA95C9F70097610571053F
:100B100008959B01AC010A2E069457954795379589
:100B20002795BA95C9F7620F731F841F951FA01DE3
:100B300008952F923F924F925F926F927F928F9281
:100B40009F92AF92BF92CF92DF92EF92FF920F935C
:100B50001F93CF93DF93CDB7DEB7CA1BDB0B0FB666
:100B6000F894DEBF0FBECDBF09942A883988488823
:100B70005F846E847D848C849B84AA84B984C884B9
:100B8000DF80EE80FD800C811B81AA81B981CE0FB0
:100B9000D11D0FB6F894DEBF0FBECDBFED01089595
:040BA000F894FFCFF7
:100BA40054656D706F72697A616E646F20202020C5
:0C0BB4000074656D706F3D20256420000A
:00000001FF
