:100000000C9456000C9460000C9460000C946000FA
:100010000C9460000C9460000C9460000C946000E0
:100020000C9460000C9460000C9460000C946000D0
:100030000C9460000C9460000C9460000C946000C0
:100040000C9460000C9460000C9460000C946000B0
:100050000C9460000C9460000C9460000C946000A0
:100060000C9460000C9460000C9460000C94600090
:100070000C9460000C9460000C9460000C94600080
:100080000C9460000C9460000C9460000C94600070
:100090000C9460000C9460000C9460000C94600060
:1000A0000C9460000C9460000C94600011241FBE3E
:1000B000CFEFDAE0DEBFCDBF0E94EC000C941E0152
:1000C0000C9400008EEF84B990EC97B980ED8AB95A
:1000D0001DB810BA15B818B883E28BB984E08EB990
:1000E00091BB85B7806885BF85B7806885BF089557
:1000F000863051F1873070F4833001F1843028F478
:100100008130C1F0823069F517C08430C9F0853084
:1001100041F518C08930F1F08A3028F48730B1F009
:100120008830F9F415C08B30C9F08B30A8F08C30D2
:10013000C1F416C02F9A08952B9A0895299A08950C
:100140002A9A08955C9A08955E9A08955F9A089590
:100150002C9A08952D9A08952E9A0895469A0895F6
:10016000479A0895863051F1873070F4833001F159
:10017000843028F48130C1F0823069F517C08430B2
:10018000C9F0853041F518C08930F1F08A3028F483
:100190008730B1F08830F9F415C08B30C9F08B305E
:1001A000A8F08C30C1F416C02F9808952B980895AC
:1001B000299808952A9808955C9808955E9808955E
:1001C0005F9808952C9808952D9808952E98089575
:1001D0004698089547980895EF92FF921F93CF9302
:1001E000DF930E946200C1E0D0E088ECE82EF12CA1
:1001F0000FC01C2F8C2F0E94780084EF91E0F70134
:100200003197F1F70197D9F7812F0E94B20021961B
:10021000CD30D10574F31CE0812F0E94780084EF6B
:1002200091E0F7013197F1F70197D9F7812F0E94FB
:10023000B200115089F7C1E0D0E0EACFF894FFCFC7
:00000001FF
