:100000000C9456000C9473000C9473000C947300C1
:100010000C9473000C9473000C9473000C94730094
:100020000C9473000C9473000C9473000C94730084
:100030000C9473000C9473000C9473000C94730074
:100040000C9473000C9473000C9473000C94730064
:100050000C9473000C9473000C9473000C94F103D3
:100060000C9473000C9473000C9473000C94730044
:100070000C9473000C9473000C9473000C94730034
:100080000C9473000C9473000C9473000C94730024
:100090000C9473000C9473000C9473000C94730014
:1000A0000C9473000C9473000C94730011241FBE05
:1000B000CFEFDAE0DEBFCDBF11E0A0E0B1E0E0E4D9
:1000C000F1E102C005900D92A838B107D9F711E00F
:1000D000A8E8B1E001C01D92A239B107E1F70E9482
:1000E0005C010C949E080C9400002F9A80ED97E020
:1000F00028EC30E0F9013197F1F70197D9F72F9803
:100100002B9A80ED97E028EC30E0F9013197F1F778
:100110000197D9F72B98299A80ED97E028EC30E0E9
:10012000F9013197F1F70197D9F729982A9A80EDCB
:1001300097E028EC30E0F9013197F1F70197D9F712
:100140002A985C9A80ED97E028EC30E0F90131972D
:10015000F1F70197D9F75C985E9A80ED97E028EC6B
:1001600030E0F9013197F1F70197D9F75E985F9A7E
:1001700080ED97E028EC30E0F9013197F1F7019735
:10018000D9F75F982C9A80ED97E028EC30E0F901E0
:100190003197F1F70197D9F72C9808952C9A80EDB3
:1001A00097E028EC30E0F9013197F1F70197D9F7A2
:1001B0002C985F9A80ED97E028EC30E0F9013197B8
:1001C000F1F70197D9F75F985E9A80ED97E028ECF8
:1001D00030E0F9013197F1F70197D9F75E985C9A11
:1001E00080ED97E028EC30E0F9013197F1F70197C5
:1001F000D9F75C982A9A80ED97E028EC30E0F90175
:100200003197F1F70197D9F72A98299A80ED97E06D
:1002100028EC30E0F9013197F1F70197D9F72998E7
:100220002B9A80ED97E028EC30E0F9013197F1F757
:100230000197D9F72B982F9A80ED97E028EC30E0C2
:10024000F9013197F1F70197D9F72F9808952C9A72
:100250002F9A80ED97E028EC30E0F9013197F1F723
:100260000197D9F72F982C985F9A2B9A80ED97E0F9
:1002700028EC30E0F9013197F1F70197D9F72B9885
:100280005F985E9A299A80ED97E028EC30E0F901BA
:100290003197F1F70197D9F729985E985C9A2A9AD5
:1002A00080ED97E028EC30E0F9013197F1F7019704
:1002B000D9F72A985C9808952F923F924F925F92B7
:1002C0006F927F928F929F92AF92BF92CF92DF9266
:1002D000EF92FF920F931F93DF93CF93CDB7DEB7CB
:1002E000E8970FB6F894DEBF0FBECDBF0E94D203D1
:1002F000DE011796E0E8F1E088E001900D92815070
:10030000E1F7DE011F96ECE4F1E088E001900D9248
:100310008150E1F7DE011196EDE2F1E086E0019017
:100320000D928150E1F78CE00E9483050E945305F5
:1003300037E1E32EF12CEC0EFD1E8F81988598AFEE
:100340008FAB00D000D0ADB7BEB71296FC92EE9244
:10035000119714969C938E9313970E94C6050F9045
:100360000F900F900F9080E060E00E944405C7015D
:100370000E94690521E0822E912CAA24BB2400E072
:1003800010E0CC24DD243E010894611C711C98EC23
:10039000492E512C80E0282E81E0382E7E992CC0E9
:1003A0000E945305A114B10421F4B3E0AB2EB12C8B
:1003B00003C00894A108B10800D000D0EDB7FEB783
:1003C000F282E182F501EE0FFF1FE60DF71D868137
:1003D0009781ADB7BEB714969C938E9313970E94E6
:1003E000C6050F900F900F900F9080E060E00E9484
:1003F0004405C7010E9469057F9938C00E945305D2
:10040000B3E0AB16B10479F400D000D0EDB7FEB77D
:10041000F282E1828FA998AD948383830E94C605FE
:10042000AA24BB2418C00894A11CB11C00D000D081
:10043000ADB7BEB71296FC92EE921197F501EE0F92
:10044000FF1FE60DF71D8681978114969C938E936E
:1004500013970E94C6050F900F900F900F9080E0A9
:1004600060E00E944405C7010E9469058CB189B112
:1004700049998FC10E945305A114B10409F097C096
:1004800000D000D0EDB7FEB7F282E182F801EE0FA6
:10049000FF1FE60DF71D86859785ADB7BEB714968D
:1004A0009C938E9313970E94C6050F900F900F9008
:1004B0000F9080E060E00E944405C7010E9469053A
:1004C0007E992AC00E9453050115110519F403E015
:1004D00010E002C00150104000D000D0EDB7FEB7D0
:1004E000F282E182F801EE0FFF1FE60DF71D86850F
:1004F0009785ADB7BEB714969C938E9313970E94C1
:10050000C6050F900F900F900F9080E060E00E9462
:100510004405C7010E9469057F992AC00E945305BE
:100520000330110519F400E010E002C00F5F1F4F07
:1005300000D000D0EDB7FEB7F282E182F801EE0FF5
:10054000FF1FE60DF71D86859785ADB7BEB71496DC
:100550009C938E9313970E94C6050F900F900F9057
:100560000F9080E060E00E944405C7010E94690589
:10057000499913C00115110511F42D9A0EC00130CF
:10058000110511F42E9A09C00230110529F003302B
:10059000110519F42D9A2E9A2F9A489BFAC080E1E2
:1005A00097E2F2013197F1F70197D9F789CFB1E0DE
:1005B000AB16B10409F04DC000D000D000D0EDB7AB
:1005C000FEB73196ADB7BEB71296FC92EE92119778
:1005D00033822282958284820E94C605EDB7FEB7DF
:1005E00036960FB6F894FEBF0FBEEDBF80E060E018
:1005F0000E944405C7010E946905629911C0181440
:100600001904DCF7089481089108C4010E94710460
:1006100084EF91E0F2013197F1F70197D9F713C018
:100620004D9914C0FFEF8F1691043CF70894811C7C
:10063000911CC4010E94710484EF91E0F201319792
:10064000F1F70197D9F70E945305B6CF4899D5CF56
:10065000A0C0F2E0AF16B10409F09BC000D000D0FA
:10066000ADB7BEB71296FC92EE921197F601EE0F5F
:10067000FF1FE60DF71D8081918114969C938E9348
:1006800013970E94C6050F900F900F900F9080E077
:1006900060E00E944405C7010E9469057E992CC054
:1006A0000E945305C114D10421F422E0C22ED12CA2
:1006B00003C00894C108D10800D000D0EDB7FEB740
:1006C000F282E182F601EE0FFF1FE60DF71D808139
:1006D0009181ADB7BEB714969C938E9313970E94E9
:1006E000C6050F900F900F900F9080E060E00E9481
:1006F0004405C7010E9469057F992CC00E945305DB
:10070000B2E0CB16D10419F4CC24DD2403C0089444
:10071000C11CD11C00D000D0EDB7FEB7F282E1823F
:10072000F601EE0FFF1FE60DF71D80819181ADB739
:10073000BEB714969C938E9313970E94C6050F9094
:100740000F900F900F9080E060E00E944405C70179
:100750000E946905499913C0C114D10419F40E947B
:1007600075000DC0B1E0CB16D10419F40E94CE0083
:1007700006C0E2E0CE16D10411F40E942701489B86
:1007800008C080E197E2F2013197F1F70197D9F7BC
:1007900085CF89B180E197E2F2013197F1F70197B6
:1007A000D9F7FCCD8EEF84B990EC97B980ED8AB97A
:1007B0001DB810BA15B818B883E28BB984E08EB9A9
:1007C00091BB85B7806885BF85B7806885BF089570
:1007D00089ED86BD14BC84E085BD81E080936E0008
:1007E00008951F920F920FB60F9211248F939F932B
:1007F00089ED86BD80918801909189010196909341
:1008000089018093880180918A0190918B010196E2
:1008100090938B0180938A0180918C0190918D013E
:10082000019690938D0180938C0180918E0190911F
:100830008F01019690938F0180938E01809190019A
:1008400090919101019690939101809390019F91D5
:100850008F910F900FBE0F901F901895806480931A
:100860007C0086E080937A0086E980937A0086ECAB
:1008700080937A0083E380937E0080917A0084FFE6
:10088000FCCF2091780030917900C90108952FEFB5
:1008900033E03093870020938600E0E8F0E0208189
:1008A0002068208323E1209381001092820090939E
:1008B00089008093880008952FEF33E030938700FC
:1008C00020938600E0E8F0E020812062208323E18D
:1008D000209381001092820090938B0080938A0075
:1008E00008952FEF33E03093870020938600E0E8EF
:1008F000F0E020812860208323E120938100109282
:10090000820090938D0080938C000895873061F170
:10091000883070F4833001F1843028F48130C1F0E4
:10092000823089F517C08530D9F08630D8F416C0EA
:100930008B3011F18C3028F48930D1F08A30D0F42A
:1009400015C08D30E9F08D30C8F08E30E1F41AC05A
:100950002F9A08952B9A0895299A08952A9A08950E
:100960005C9A08955E9A08955F9A08952C9A089566
:100970002D9A08952E9A0895469A0895479A0895B3
:10098000289A0895769A0895873061F1883070F436
:10099000833001F1843028F48130C1F0823089F550
:1009A00017C08530D9F08630D8F416C08B3011F1DD
:1009B0008C3028F48930D1F08A30D0F415C08D30D5
:1009C000E9F08D30C8F08E30E1F41AC02F98089508
:1009D0002B980895299808952A9808955C98089569
:1009E0005E9808955F9808952C9808952D9808951D
:1009F0002E98089546980895479808952898089540
:100A000076980895662311F0289A01C02898259AAF
:100A1000269A3E9A3F9A479846982E982D9887FD99
:100A2000479A86FD469A85FD2E9A84FD2D9A769AE0
:100A3000E6E0F0E03197F1F77698479846982E98DF
:100A40002D9883FD479A82FD469A81FD2E9A80FD5E
:100A50002D9A769A86E090E00197F1F776982D9896
:100A60002E98469847980895E0E8FCE03197F1F712
:100A700060E00E9402050895E0E8FCE03197F1F79C
:100A800061E00E9402050895662311F4805801C0B8
:100A900080540E943405089580E89CE00197F1F7A6
:100AA00080E090E0089581E00E943405089582E09E
:100AB0000E9434050895E0E8FCE03197F1F78A30B0
:100AC00021F480EC0E943405089561E00E94020543
:100AD0000895CF93DF93EC0102C00E945B058991DA
:100AE0008823D9F7DF91CF910895CF93DF93EC015D
:100AF00002C00E945B05FE01219684918823C9F7FC
:100B0000DF91CF9108951F93182F209A6E9A259AFE
:100B1000269A3E9A3F9A80E098EC0197F1F72E9A38
:100B20002D9A769A26E030E0C9010197F1F7769880
:100B300086E69EE30197F1F7769AC9010197F1F7EE
:100B400076988CEC90E0FC013197F1F7769AF901F8
:100B50003197F1F77698FC013197F1F72D98769A55
:100B6000F9013197F1F776980197F1F788E20E9441
:100B7000340588E00E9434050E94530586E00E94F7
:100B80003405812F0E9434051F910895AEE0B0E036
:100B9000ECECF5E00C9475080D891E8986E08C83D9
:100BA0001A8309838FEF9FE79E838D839E01275EC3
:100BB0003F4FCE0101966F89788DA9010E94EA0509
:100BC0002F813885020F131FF80110822E96E4E062
:100BD0000C949108ABE0B0E0E0EFF5E00C9467080E
:100BE0003C012B015A01FC0117821682838181FD91
:100BF00003C06FEF7FEFC6C19AE0892E1E010894F3
:100C0000211C311CF3012381F20123FD859123FF77
:100C100081912F01882309F4B2C1853239F423FD73
:100C2000859123FF81912F01853229F490E0B30152
:100C30000E94DD07E7CF982FFF24EE249924FFE1DF
:100C4000FF15D0F09B3269F09C3228F4903259F0B5
:100C5000933291F40EC09D3249F0903369F441E033
:100C600024C052E0F52A84E0F82A28C098E0F92A46
:100C700025C0E0E1FE2A22C0F7FC29C0892F80535D
:100C80008A3070F4F6FE05C0989C902C1124980EC2
:100C900015C0E89CE02C1124E80EF0E2FF2A0EC0FB
:100CA0009E3229F4F6FC6BC140E4F42A07C09C365E
:100CB00019F450E8F52A02C0983649F4F20123FDF0
:100CC000959123FF91912F01992309F0B8CF892F96
:100CD0008554833018F08052833038F444E050E07B
:100CE000A40EB51E5FE359830FC0933631F09337DE
:100CF00079F0933509F056C020C0F50180818983D1
:100D000042E050E0A40EB51E610101E010E012C007
:100D1000F501C080D180F6FC03C06FEF7FEF02C009
:100D2000692D70E042E050E0A40EB51EC6010E949D
:100D3000D2078C015FE7F52214C0F501C080D18095
:100D4000F6FC03C06FEF7FEF02C0692D70E042E058
:100D500050E0A40EB51EC6010E94C7078C0150E8E2
:100D6000F52AF3FE07C01AC080E290E0B3010E94AA
:100D7000DD07EA948E2D90E008171907A8F30EC03E
:100D8000F601F7FC8591F7FE81916F0190E0B301C8
:100D90000E94DD07E110EA94015010400115110591
:100DA00079F7EAC0943611F0993669F5F7FE08C074
:100DB000F501208131814281538184E090E00AC0B5
:100DC000F501808191819C01442737FD4095542F86
:100DD00082E090E0A80EB91E9FE6F92257FF09C0F5
:100DE00050954095309521953F4F4F4F5F4FE0E82C
:100DF000FE2ACA01B901A1012AE030E00E940908D7
:100E0000D82ED21840C0953729F41F2D1F7E2AE016
:100E100030E01DC01F2D197F9F3661F0903720F400
:100E2000983509F0ACC00FC0903739F0983709F009
:100E3000A6C004C028E030E00AC0106114FD1460B0
:100E400020E130E004C014FD166020E132E017FF1D
:100E500008C0F501608171818281938144E050E096
:100E600008C0F50180819181BC0180E090E042E002
:100E700050E0A40EB51EA1010E940908D82ED21878
:100E80008FE7F82EF122F6FE0BC05EEFF522D914A3
:100E900038F4F4FE07C0F2FC05C08FEEF82202C061
:100EA0001D2D01C0192DF4FE0DC0FE01ED0DF11D2B
:100EB0008081803319F499EEF92208C01F5FF2FE99
:100EC00005C003C08F2D867809F01F5F0F2DF3FC3E
:100ED00014C0F0FE0FC01E1510F09D2C0BC09D2CF1
:100EE0009E0C911A1E2D06C080E290E0B3010E9474
:100EF000DD071F5F1E15C0F304C01E1510F4E11AB4
:100F000001C0EE2404FF0FC080E390E0B3010E9413
:100F1000DD0702FF1DC001FD03C088E790E00EC0A1
:100F200088E590E00BC0802F867891F001FF02C029
:100F30008BE201C080E2F7FC8DE290E0B3010E94F9
:100F4000DD0706C080E390E0B3010E94DD079A94BC
:100F5000D914C0F3DA94F101ED0DF11D808190E018
:100F6000B3010E94DD07DD20A9F706C080E290E012
:100F7000B3010E94DD07EA94EE20C1F743CEF301EE
:100F800066817781CB012B96E2E10C948308FC010A
:100F90000590615070400110D8F7809590958E0FA4
:100FA0009F1F0895FC016150704001900110D8F717
:100FB000809590958E0F9F1F08950F931F93CF9349
:100FC000DF938C01EB018B8181FF1BC082FF0DC081
:100FD0002E813F818C819D812817390764F4E88137
:100FE000F9810193F983E88306C0E885F985802FAC
:100FF0000995892B31F48E819F8101969F838E8381
:1010000002C00FEF1FEFC801DF91CF911F910F9129
:101010000895FA01AA27283051F1203181F1E8948E
:101020006F936E7F6E5F7F4F8F4F9F4FAF4FB1E0DB
:101030003ED0B4E03CD0670F781F891F9A1FA11DD6
:10104000680F791F8A1F911DA11D6A0F711D811DD7
:10105000911DA11D20D009F468943F912AE0269F9C
:1010600011243019305D3193DEF6CF010895462FFB
:101070004770405D4193B3E00FD0C9F7F6CF462FDC
:101080004F70405D4A3318F0495D31FD4052419345
:1010900002D0A9F7EACFB4E0A69597958795779502
:1010A0006795BA95C9F700976105710508959B0189
:1010B000AC010A2E06945795479537952795BA9512
:1010C000C9F7620F731F841F951FA01D08952F92EB
:1010D0003F924F925F926F927F928F929F92AF92C8
:1010E000BF92CF92DF92EF92FF920F931F93CF9315
:1010F000DF93CDB7DEB7CA1BDB0B0FB6F894DEBFAC
:101100000FBECDBF09942A88398848885F846E84D1
:101110007D848C849B84AA84B984C884DF80EE801B
:10112000FD800C811B81AA81B981CE0FD11D0FB624
:10113000F894DEBF0FBECDBFED010895F894FFCF48
:10114000496E74656E7369646164653A2025640054
:101150004469726569746100457371756572646193
:101160000050617261206F206D65696F0010011879
:101170000121014C65642034004C65642035005326
:1011800074726F626500546F6461730033013901DA
:101190003F0146014573636F6C686572204C65645E
:1011A00000496E74656E73696461646500456665C7
:1011B00069746F00417061676172207475646F00BB
:0811C000540161016D0174018D
:00000001FF
