:100000000C9456000C9460000C9460000C946000FA
:100010000C9460000C9460000C9460000C946000E0
:100020000C9460000C9460000C9460000C946000D0
:100030000C9460000C9460000C9460000C946000C0
:100040000C9460000C9460000C9460000C946000B0
:100050000C9460000C9460000C9460000C946000A0
:100060000C9460000C9460000C9460000C94600090
:100070000C9460000C9460000C9460000C94600080
:100080000C9460000C9460000C9460000C94600070
:100090000C9460000C9460000C9460000C94600060
:1000A0000C9460000C9460000C94600011241FBE3E
:1000B000CFEFDAE0DEBFCDBF0E9478000C94830062
:1000C0000C9400008EEF84B990EC97B980ED8AB95A
:1000D0001DB810BA15B818B883E28BB984E08EB990
:1000E00091BB85B7806885BF85B7806885BF089557
:1000F0000E9462004D9902C05C9A47987E99FACF9F
:0A010000479A5C98F7CFF894FFCF00
:00000001FF
